{
  "_format": "hh-sol-artifact-1",
  "contractName": "Lottery",
  "sourceName": "contracts/Lottery.sol",
  "abi": [
    {
      "inputs": [
        {
          "internalType": "string",
          "name": "tokenName",
          "type": "string"
        },
        {
          "internalType": "string",
          "name": "tokenSymbol",
          "type": "string"
        },
        {
          "internalType": "uint256",
          "name": "_purchaseRatio",
          "type": "uint256"
        },
        {
          "internalType": "uint256",
          "name": "_betPrice",
          "type": "uint256"
        },
        {
          "internalType": "uint256",
          "name": "_betFee",
          "type": "uint256"
        }
      ],
      "stateMutability": "nonpayable",
      "type": "constructor"
    },
    {
      "anonymous": false,
      "inputs": [
        {
          "indexed": true,
          "internalType": "address",
          "name": "previousOwner",
          "type": "address"
        },
        {
          "indexed": true,
          "internalType": "address",
          "name": "newOwner",
          "type": "address"
        }
      ],
      "name": "OwnershipTransferred",
      "type": "event"
    },
    {
      "inputs": [],
      "name": "bet",
      "outputs": [],
      "stateMutability": "nonpayable",
      "type": "function"
    },
    {
      "inputs": [],
      "name": "betFee",
      "outputs": [
        {
          "internalType": "uint256",
          "name": "",
          "type": "uint256"
        }
      ],
      "stateMutability": "view",
      "type": "function"
    },
    {
      "inputs": [
        {
          "internalType": "uint256",
          "name": "times",
          "type": "uint256"
        }
      ],
      "name": "betMany",
      "outputs": [],
      "stateMutability": "nonpayable",
      "type": "function"
    },
    {
      "inputs": [],
      "name": "betPrice",
      "outputs": [
        {
          "internalType": "uint256",
          "name": "",
          "type": "uint256"
        }
      ],
      "stateMutability": "view",
      "type": "function"
    },
    {
      "inputs": [],
      "name": "betsClosingTime",
      "outputs": [
        {
          "internalType": "uint256",
          "name": "",
          "type": "uint256"
        }
      ],
      "stateMutability": "view",
      "type": "function"
    },
    {
      "inputs": [],
      "name": "betsOpen",
      "outputs": [
        {
          "internalType": "bool",
          "name": "",
          "type": "bool"
        }
      ],
      "stateMutability": "view",
      "type": "function"
    },
    {
      "inputs": [],
      "name": "closeLottery",
      "outputs": [],
      "stateMutability": "nonpayable",
      "type": "function"
    },
    {
      "inputs": [],
      "name": "getRandomNumber",
      "outputs": [
        {
          "internalType": "uint256",
          "name": "randomNumber",
          "type": "uint256"
        }
      ],
      "stateMutability": "view",
      "type": "function"
    },
    {
      "inputs": [
        {
          "internalType": "uint256",
          "name": "closingTime",
          "type": "uint256"
        }
      ],
      "name": "openBets",
      "outputs": [],
      "stateMutability": "nonpayable",
      "type": "function"
    },
    {
      "inputs": [],
      "name": "owner",
      "outputs": [
        {
          "internalType": "address",
          "name": "",
          "type": "address"
        }
      ],
      "stateMutability": "view",
      "type": "function"
    },
    {
      "inputs": [],
      "name": "ownerPool",
      "outputs": [
        {
          "internalType": "uint256",
          "name": "",
          "type": "uint256"
        }
      ],
      "stateMutability": "view",
      "type": "function"
    },
    {
      "inputs": [
        {
          "internalType": "uint256",
          "name": "amount",
          "type": "uint256"
        }
      ],
      "name": "ownerWithdraw",
      "outputs": [],
      "stateMutability": "nonpayable",
      "type": "function"
    },
    {
      "inputs": [],
      "name": "paymentToken",
      "outputs": [
        {
          "internalType": "contract LotteryToken",
          "name": "",
          "type": "address"
        }
      ],
      "stateMutability": "view",
      "type": "function"
    },
    {
      "inputs": [
        {
          "internalType": "address",
          "name": "",
          "type": "address"
        }
      ],
      "name": "prize",
      "outputs": [
        {
          "internalType": "uint256",
          "name": "",
          "type": "uint256"
        }
      ],
      "stateMutability": "view",
      "type": "function"
    },
    {
      "inputs": [],
      "name": "prizePool",
      "outputs": [
        {
          "internalType": "uint256",
          "name": "",
          "type": "uint256"
        }
      ],
      "stateMutability": "view",
      "type": "function"
    },
    {
      "inputs": [
        {
          "internalType": "uint256",
          "name": "amount",
          "type": "uint256"
        }
      ],
      "name": "prizeWithdraw",
      "outputs": [],
      "stateMutability": "nonpayable",
      "type": "function"
    },
    {
      "inputs": [],
      "name": "purchaseRatio",
      "outputs": [
        {
          "internalType": "uint256",
          "name": "",
          "type": "uint256"
        }
      ],
      "stateMutability": "view",
      "type": "function"
    },
    {
      "inputs": [
        {
          "internalType": "uint256",
          "name": "value",
          "type": "uint256"
        }
      ],
      "name": "purchaseTokens",
      "outputs": [],
      "stateMutability": "payable",
      "type": "function"
    },
    {
      "inputs": [],
      "name": "renounceOwnership",
      "outputs": [],
      "stateMutability": "nonpayable",
      "type": "function"
    },
    {
      "inputs": [
        {
          "internalType": "uint256",
          "name": "amount",
          "type": "uint256"
        }
      ],
      "name": "returnTokens",
      "outputs": [],
      "stateMutability": "nonpayable",
      "type": "function"
    },
    {
      "inputs": [
        {
          "internalType": "address",
          "name": "newOwner",
          "type": "address"
        }
      ],
      "name": "transferOwnership",
      "outputs": [],
      "stateMutability": "nonpayable",
      "type": "function"
    }
  ],
  "bytecode": "0x60806040523480156200001157600080fd5b506040516200495c3803806200495c83398181016040528101906200003791906200039a565b620000576200004b620000f260201b60201c565b620000fa60201b60201c565b84846040516200006790620001be565b62000074929190620004bd565b604051809103906000f08015801562000091573d6000803e3d6000fd5b50600160006101000a81548173ffffffffffffffffffffffffffffffffffffffff021916908373ffffffffffffffffffffffffffffffffffffffff1602179055508260028190555081600381905550806004819055505050505050620004f8565b600033905090565b60008060009054906101000a900473ffffffffffffffffffffffffffffffffffffffff169050816000806101000a81548173ffffffffffffffffffffffffffffffffffffffff021916908373ffffffffffffffffffffffffffffffffffffffff1602179055508173ffffffffffffffffffffffffffffffffffffffff168173ffffffffffffffffffffffffffffffffffffffff167f8be0079c531659141344cd1fd0a4f28419497f9722a3daafe3b4186f6b6457e060405160405180910390a35050565b612c168062001d4683390190565b6000604051905090565b600080fd5b600080fd5b600080fd5b600080fd5b6000601f19601f8301169050919050565b7f4e487b7100000000000000000000000000000000000000000000000000000000600052604160045260246000fd5b6200023582620001ea565b810181811067ffffffffffffffff82111715620002575762000256620001fb565b5b80604052505050565b60006200026c620001cc565b90506200027a82826200022a565b919050565b600067ffffffffffffffff8211156200029d576200029c620001fb565b5b620002a882620001ea565b9050602081019050919050565b60005b83811015620002d5578082015181840152602081019050620002b8565b60008484015250505050565b6000620002f8620002f2846200027f565b62000260565b905082815260208101848484011115620003175762000316620001e5565b5b62000324848285620002b5565b509392505050565b600082601f830112620003445762000343620001e0565b5b815162000356848260208601620002e1565b91505092915050565b6000819050919050565b62000374816200035f565b81146200038057600080fd5b50565b600081519050620003948162000369565b92915050565b600080600080600060a08688031215620003b957620003b8620001d6565b5b600086015167ffffffffffffffff811115620003da57620003d9620001db565b5b620003e8888289016200032c565b955050602086015167ffffffffffffffff8111156200040c576200040b620001db565b5b6200041a888289016200032c565b94505060406200042d8882890162000383565b9350506060620004408882890162000383565b9250506080620004538882890162000383565b9150509295509295909350565b600081519050919050565b600082825260208201905092915050565b6000620004898262000460565b6200049581856200046b565b9350620004a7818560208601620002b5565b620004b281620001ea565b840191505092915050565b60006040820190508181036000830152620004d981856200047c565b90508181036020830152620004ef81846200047c565b90509392505050565b61183e80620005086000396000f3fe60806040526004361061012a5760003560e01c8063729e91e9116100ab57806395cadc471161006f57806395cadc4714610373578063990a49f51461039e578063cfd8a175146103c7578063d1b258ff146103f2578063dbdff2c11461041d578063f2fde38b146104485761012a565b8063729e91e91461029b5780637b97008d146102c4578063841e6ce9146102e05780638adf9c1f1461030b5780638da5cb5b146103485761012a565b80633ae1786f116100f25780633ae1786f146101f05780633cc121e6146102195780636fd0981614610242578063715018a614610259578063719ce73e146102705761012a565b806311610c251461012f57806318c34965146101465780632b65e040146101715780633013ce291461019c57806333f707d1146101c7575b600080fd5b34801561013b57600080fd5b50610144610471565b005b34801561015257600080fd5b5061015b61061a565b6040516101689190610f86565b60405180910390f35b34801561017d57600080fd5b50610186610620565b6040516101939190610f86565b60405180910390f35b3480156101a857600080fd5b506101b1610626565b6040516101be9190611020565b60405180910390f35b3480156101d357600080fd5b506101ee60048036038101906101e9919061106c565b61064c565b005b3480156101fc57600080fd5b506102176004803603810190610212919061106c565b610756565b005b34801561022557600080fd5b50610240600480360381019061023b919061106c565b61083c565b005b34801561024e57600080fd5b506102576109b8565b005b34801561026557600080fd5b5061026e610b47565b005b34801561027c57600080fd5b50610285610b5b565b6040516102929190610f86565b60405180910390f35b3480156102a757600080fd5b506102c260048036038101906102bd919061106c565b610b61565b005b6102de60048036038101906102d9919061106c565b610b96565b005b3480156102ec57600080fd5b506102f5610c35565b6040516103029190610f86565b60405180910390f35b34801561031757600080fd5b50610332600480360381019061032d91906110d7565b610c3b565b60405161033f9190610f86565b60405180910390f35b34801561035457600080fd5b5061035d610c53565b60405161036a9190611113565b60405180910390f35b34801561037f57600080fd5b50610388610c7c565b6040516103959190610f86565b60405180910390f35b3480156103aa57600080fd5b506103c560048036038101906103c0919061106c565b610c82565b005b3480156103d357600080fd5b506103dc610d41565b6040516103e99190610f86565b60405180910390f35b3480156103fe57600080fd5b50610407610d47565b6040516104149190611149565b60405180910390f35b34801561042957600080fd5b50610432610d5a565b60405161043f9190610f86565b60405180910390f35b34801561045457600080fd5b5061046f600480360381019061046a91906110d7565b610d62565b005b600760009054906101000a900460ff16801561048e575060085442105b6104cd576040517f08c379a00000000000000000000000000000000000000000000000000000000081526004016104c4906111c1565b60405180910390fd5b600454600660008282546104e19190611210565b92505081905550600354600560008282546104fc9190611210565b92505081905550600a339080600181540180825580915050600190039060005260206000200160009091909190916101000a81548173ffffffffffffffffffffffffffffffffffffffff021916908373ffffffffffffffffffffffffffffffffffffffff160217905550600160009054906101000a900473ffffffffffffffffffffffffffffffffffffffff1673ffffffffffffffffffffffffffffffffffffffff166323b872dd33306004546003546105b69190611210565b6040518463ffffffff1660e01b81526004016105d493929190611244565b6020604051808303816000875af11580156105f3573d6000803e3d6000fd5b505050506040513d601f19601f8201168201806040525081019061061791906112a7565b50565b60085481565b60065481565b600160009054906101000a900473ffffffffffffffffffffffffffffffffffffffff1681565b610654610de5565b600654811115610699576040517f08c379a000000000000000000000000000000000000000000000000000000000815260040161069090611320565b60405180910390fd5b80600660008282546106ab9190611340565b92505081905550600160009054906101000a900473ffffffffffffffffffffffffffffffffffffffff1673ffffffffffffffffffffffffffffffffffffffff1663a9059cbb33836040518363ffffffff1660e01b815260040161070f929190611374565b6020604051808303816000875af115801561072e573d6000803e3d6000fd5b505050506040513d601f19601f8201168201806040525081019061075291906112a7565b5050565b600160009054906101000a900473ffffffffffffffffffffffffffffffffffffffff1673ffffffffffffffffffffffffffffffffffffffff166379cc679033836040518363ffffffff1660e01b81526004016107b3929190611374565b600060405180830381600087803b1580156107cd57600080fd5b505af11580156107e1573d6000803e3d6000fd5b505050503373ffffffffffffffffffffffffffffffffffffffff166108fc6002548361080d91906113cc565b9081150290604051600060405180830381858888f19350505050158015610838573d6000803e3d6000fd5b5050565b600960003373ffffffffffffffffffffffffffffffffffffffff1673ffffffffffffffffffffffffffffffffffffffff168152602001908152602001600020548111156108be576040517f08c379a00000000000000000000000000000000000000000000000000000000081526004016108b590611449565b60405180910390fd5b80600960003373ffffffffffffffffffffffffffffffffffffffff1673ffffffffffffffffffffffffffffffffffffffff168152602001908152602001600020600082825461090d9190611340565b92505081905550600160009054906101000a900473ffffffffffffffffffffffffffffffffffffffff1673ffffffffffffffffffffffffffffffffffffffff1663a9059cbb33836040518363ffffffff1660e01b8152600401610971929190611374565b6020604051808303816000875af1158015610990573d6000803e3d6000fd5b505050506040513d601f19601f820116820180604052508101906109b491906112a7565b5050565b6008544210156109fd576040517f08c379a00000000000000000000000000000000000000000000000000000000081526004016109f4906114b5565b60405180910390fd5b600760009054906101000a900460ff16610a4c576040517f08c379a0000000000000000000000000000000000000000000000000000000008152600401610a4390611521565b60405180910390fd5b6000600a805490501115610b2a576000600a80549050610a6a610d5a565b610a749190611541565b90506000600a8281548110610a8c57610a8b611572565b5b9060005260206000200160009054906101000a900473ffffffffffffffffffffffffffffffffffffffff169050600554600960008373ffffffffffffffffffffffffffffffffffffffff1673ffffffffffffffffffffffffffffffffffffffff1681526020019081526020016000206000828254610b0a9190611210565b925050819055506000600581905550600a6000610b279190610f2f565b50505b6000600760006101000a81548160ff021916908315150217905550565b610b4f610de5565b610b596000610e63565b565b60055481565b60008111610b6e57600080fd5b5b6000811115610b9357610b80610471565b8080610b8b906115a1565b915050610b6f565b50565b600160009054906101000a900473ffffffffffffffffffffffffffffffffffffffff1673ffffffffffffffffffffffffffffffffffffffff166340c10f193360025484610be391906115ca565b6040518363ffffffff1660e01b8152600401610c00929190611374565b600060405180830381600087803b158015610c1a57600080fd5b505af1158015610c2e573d6000803e3d6000fd5b5050505050565b60045481565b60096020528060005260406000206000915090505481565b60008060009054906101000a900473ffffffffffffffffffffffffffffffffffffffff16905090565b60025481565b610c8a610de5565b600760009054906101000a900460ff1615610cda576040517f08c379a0000000000000000000000000000000000000000000000000000000008152600401610cd190611658565b60405180910390fd5b428111610d1c576040517f08c379a0000000000000000000000000000000000000000000000000000000008152600401610d13906116ea565b60405180910390fd5b806008819055506001600760006101000a81548160ff02191690831515021790555050565b60035481565b600760009054906101000a900460ff1681565b600044905090565b610d6a610de5565b600073ffffffffffffffffffffffffffffffffffffffff168173ffffffffffffffffffffffffffffffffffffffff1603610dd9576040517f08c379a0000000000000000000000000000000000000000000000000000000008152600401610dd09061177c565b60405180910390fd5b610de281610e63565b50565b610ded610f27565b73ffffffffffffffffffffffffffffffffffffffff16610e0b610c53565b73ffffffffffffffffffffffffffffffffffffffff1614610e61576040517f08c379a0000000000000000000000000000000000000000000000000000000008152600401610e58906117e8565b60405180910390fd5b565b60008060009054906101000a900473ffffffffffffffffffffffffffffffffffffffff169050816000806101000a81548173ffffffffffffffffffffffffffffffffffffffff021916908373ffffffffffffffffffffffffffffffffffffffff1602179055508173ffffffffffffffffffffffffffffffffffffffff168173ffffffffffffffffffffffffffffffffffffffff167f8be0079c531659141344cd1fd0a4f28419497f9722a3daafe3b4186f6b6457e060405160405180910390a35050565b600033905090565b5080546000825590600052602060002090810190610f4d9190610f50565b50565b5b80821115610f69576000816000905550600101610f51565b5090565b6000819050919050565b610f8081610f6d565b82525050565b6000602082019050610f9b6000830184610f77565b92915050565b600073ffffffffffffffffffffffffffffffffffffffff82169050919050565b6000819050919050565b6000610fe6610fe1610fdc84610fa1565b610fc1565b610fa1565b9050919050565b6000610ff882610fcb565b9050919050565b600061100a82610fed565b9050919050565b61101a81610fff565b82525050565b60006020820190506110356000830184611011565b92915050565b600080fd5b61104981610f6d565b811461105457600080fd5b50565b60008135905061106681611040565b92915050565b6000602082840312156110825761108161103b565b5b600061109084828501611057565b91505092915050565b60006110a482610fa1565b9050919050565b6110b481611099565b81146110bf57600080fd5b50565b6000813590506110d1816110ab565b92915050565b6000602082840312156110ed576110ec61103b565b5b60006110fb848285016110c2565b91505092915050565b61110d81611099565b82525050565b60006020820190506111286000830184611104565b92915050565b60008115159050919050565b6111438161112e565b82525050565b600060208201905061115e600083018461113a565b92915050565b600082825260208201905092915050565b7f4c6f747465727920697320636c6f736564000000000000000000000000000000600082015250565b60006111ab601183611164565b91506111b682611175565b602082019050919050565b600060208201905081810360008301526111da8161119e565b9050919050565b7f4e487b7100000000000000000000000000000000000000000000000000000000600052601160045260246000fd5b600061121b82610f6d565b915061122683610f6d565b925082820190508082111561123e5761123d6111e1565b5b92915050565b60006060820190506112596000830186611104565b6112666020830185611104565b6112736040830184610f77565b949350505050565b6112848161112e565b811461128f57600080fd5b50565b6000815190506112a18161127b565b92915050565b6000602082840312156112bd576112bc61103b565b5b60006112cb84828501611292565b91505092915050565b7f4e6f7420656e6f756768206665657320636f6c6c656374656400000000000000600082015250565b600061130a601983611164565b9150611315826112d4565b602082019050919050565b60006020820190508181036000830152611339816112fd565b9050919050565b600061134b82610f6d565b915061135683610f6d565b925082820390508181111561136e5761136d6111e1565b5b92915050565b60006040820190506113896000830185611104565b6113966020830184610f77565b9392505050565b7f4e487b7100000000000000000000000000000000000000000000000000000000600052601260045260246000fd5b60006113d782610f6d565b91506113e283610f6d565b9250826113f2576113f161139d565b5b828204905092915050565b7f4e6f7420656e6f756768207072697a6500000000000000000000000000000000600082015250565b6000611433601083611164565b915061143e826113fd565b602082019050919050565b6000602082019050818103600083015261146281611426565b9050919050565b7f546f6f20736f6f6e20746f20636c6f7365000000000000000000000000000000600082015250565b600061149f601183611164565b91506114aa82611469565b602082019050919050565b600060208201905081810360008301526114ce81611492565b9050919050565b7f416c726561647920636c6f736564000000000000000000000000000000000000600082015250565b600061150b600e83611164565b9150611516826114d5565b602082019050919050565b6000602082019050818103600083015261153a816114fe565b9050919050565b600061154c82610f6d565b915061155783610f6d565b9250826115675761156661139d565b5b828206905092915050565b7f4e487b7100000000000000000000000000000000000000000000000000000000600052603260045260246000fd5b60006115ac82610f6d565b9150600082036115bf576115be6111e1565b5b600182039050919050565b60006115d582610f6d565b91506115e083610f6d565b92508282026115ee81610f6d565b91508282048414831517611605576116046111e1565b5b5092915050565b7f4c6f7474657279206973206f70656e0000000000000000000000000000000000600082015250565b6000611642600f83611164565b915061164d8261160c565b602082019050919050565b6000602082019050818103600083015261167181611635565b9050919050565b7f436c6f73696e672074696d65206d75737420626520696e20746865206675747560008201527f7265000000000000000000000000000000000000000000000000000000000000602082015250565b60006116d4602283611164565b91506116df82611678565b604082019050919050565b60006020820190508181036000830152611703816116c7565b9050919050565b7f4f776e61626c653a206e6577206f776e657220697320746865207a65726f206160008201527f6464726573730000000000000000000000000000000000000000000000000000602082015250565b6000611766602683611164565b91506117718261170a565b604082019050919050565b6000602082019050818103600083015261179581611759565b9050919050565b7f4f776e61626c653a2063616c6c6572206973206e6f7420746865206f776e6572600082015250565b60006117d2602083611164565b91506117dd8261179c565b602082019050919050565b60006020820190508181036000830152611801816117c5565b905091905056fea26469706673582212204a1f8027da752355fc3b3ed6c8901646bbfcdebdd20f3510a0a8b6cc5997832064736f6c6343000813003360806040523480156200001157600080fd5b5060405162002c1638038062002c168339818101604052810190620000379190620003a6565b818181600390816200004a919062000676565b5080600490816200005c919062000676565b505050620000746000801b33620000ae60201b60201c565b620000a67f9f2df0fed2c77648de5860a4cc508cd0818c85b8b8a1ab4ceeef8d981c8956a633620000ae60201b60201c565b50506200075d565b620000c08282620001a060201b60201c565b6200019c5760016005600084815260200190815260200160002060000160008373ffffffffffffffffffffffffffffffffffffffff1673ffffffffffffffffffffffffffffffffffffffff16815260200190815260200160002060006101000a81548160ff021916908315150217905550620001416200020b60201b60201c565b73ffffffffffffffffffffffffffffffffffffffff168173ffffffffffffffffffffffffffffffffffffffff16837f2f8788117e7eff1d82e926ec794901d17c78024a50270940304540a733656f0d60405160405180910390a45b5050565b60006005600084815260200190815260200160002060000160008373ffffffffffffffffffffffffffffffffffffffff1673ffffffffffffffffffffffffffffffffffffffff16815260200190815260200160002060009054906101000a900460ff16905092915050565b600033905090565b6000604051905090565b600080fd5b600080fd5b600080fd5b600080fd5b6000601f19601f8301169050919050565b7f4e487b7100000000000000000000000000000000000000000000000000000000600052604160045260246000fd5b6200027c8262000231565b810181811067ffffffffffffffff821117156200029e576200029d62000242565b5b80604052505050565b6000620002b362000213565b9050620002c1828262000271565b919050565b600067ffffffffffffffff821115620002e457620002e362000242565b5b620002ef8262000231565b9050602081019050919050565b60005b838110156200031c578082015181840152602081019050620002ff565b60008484015250505050565b60006200033f6200033984620002c6565b620002a7565b9050828152602081018484840111156200035e576200035d6200022c565b5b6200036b848285620002fc565b509392505050565b600082601f8301126200038b576200038a62000227565b5b81516200039d84826020860162000328565b91505092915050565b60008060408385031215620003c057620003bf6200021d565b5b600083015167ffffffffffffffff811115620003e157620003e062000222565b5b620003ef8582860162000373565b925050602083015167ffffffffffffffff81111562000413576200041262000222565b5b620004218582860162000373565b9150509250929050565b600081519050919050565b7f4e487b7100000000000000000000000000000000000000000000000000000000600052602260045260246000fd5b600060028204905060018216806200047e57607f821691505b60208210810362000494576200049362000436565b5b50919050565b60008190508160005260206000209050919050565b60006020601f8301049050919050565b600082821b905092915050565b600060088302620004fe7fffffffffffffffffffffffffffffffffffffffffffffffffffffffffffffffff82620004bf565b6200050a8683620004bf565b95508019841693508086168417925050509392505050565b6000819050919050565b6000819050919050565b600062000557620005516200054b8462000522565b6200052c565b62000522565b9050919050565b6000819050919050565b620005738362000536565b6200058b62000582826200055e565b848454620004cc565b825550505050565b600090565b620005a262000593565b620005af81848462000568565b505050565b5b81811015620005d757620005cb60008262000598565b600181019050620005b5565b5050565b601f8211156200062657620005f0816200049a565b620005fb84620004af565b810160208510156200060b578190505b620006236200061a85620004af565b830182620005b4565b50505b505050565b600082821c905092915050565b60006200064b600019846008026200062b565b1980831691505092915050565b600062000666838362000638565b9150826002028217905092915050565b62000681826200042b565b67ffffffffffffffff8111156200069d576200069c62000242565b5b620006a9825462000465565b620006b6828285620005db565b600060209050601f831160018114620006ee5760008415620006d9578287015190505b620006e5858262000658565b86555062000755565b601f198416620006fe866200049a565b60005b82811015620007285784890151825560018201915060208501945060208101905062000701565b8683101562000748578489015162000744601f89168262000638565b8355505b6001600288020188555050505b505050505050565b6124a9806200076d6000396000f3fe608060405234801561001057600080fd5b50600436106101425760003560e01c806342966c68116100b8578063a217fddf1161007c578063a217fddf1461039b578063a457c2d7146103b9578063a9059cbb146103e9578063d539139314610419578063d547741f14610437578063dd62ed3e1461045357610142565b806342966c68146102e557806370a082311461030157806379cc67901461033157806391d148541461034d57806395d89b411461037d57610142565b8063248a9ca31161010a578063248a9ca3146102135780632f2ff15d14610243578063313ce5671461025f57806336568abe1461027d578063395093511461029957806340c10f19146102c957610142565b806301ffc9a71461014757806306fdde0314610177578063095ea7b31461019557806318160ddd146101c557806323b872dd146101e3575b600080fd5b610161600480360381019061015c919061176f565b610483565b60405161016e91906117b7565b60405180910390f35b61017f6104fd565b60405161018c9190611862565b60405180910390f35b6101af60048036038101906101aa9190611918565b61058f565b6040516101bc91906117b7565b60405180910390f35b6101cd6105b2565b6040516101da9190611967565b60405180910390f35b6101fd60048036038101906101f89190611982565b6105bc565b60405161020a91906117b7565b60405180910390f35b61022d60048036038101906102289190611a0b565b6105eb565b60405161023a9190611a47565b60405180910390f35b61025d60048036038101906102589190611a62565b61060b565b005b61026761062c565b6040516102749190611abe565b60405180910390f35b61029760048036038101906102929190611a62565b610635565b005b6102b360048036038101906102ae9190611918565b6106b8565b6040516102c091906117b7565b60405180910390f35b6102e360048036038101906102de9190611918565b6106ef565b005b6102ff60048036038101906102fa9190611ad9565b6106fd565b005b61031b60048036038101906103169190611b06565b610711565b6040516103289190611967565b60405180910390f35b61034b60048036038101906103469190611918565b610759565b005b61036760048036038101906103629190611a62565b610779565b60405161037491906117b7565b60405180910390f35b6103856107e4565b6040516103929190611862565b60405180910390f35b6103a3610876565b6040516103b09190611a47565b60405180910390f35b6103d360048036038101906103ce9190611918565b61087d565b6040516103e091906117b7565b60405180910390f35b61040360048036038101906103fe9190611918565b6108f4565b60405161041091906117b7565b60405180910390f35b610421610917565b60405161042e9190611a47565b60405180910390f35b610451600480360381019061044c9190611a62565b61093b565b005b61046d60048036038101906104689190611b33565b61095c565b60405161047a9190611967565b60405180910390f35b60007f7965db0b000000000000000000000000000000000000000000000000000000007bffffffffffffffffffffffffffffffffffffffffffffffffffffffff1916827bffffffffffffffffffffffffffffffffffffffffffffffffffffffff191614806104f657506104f5826109e3565b5b9050919050565b60606003805461050c90611ba2565b80601f016020809104026020016040519081016040528092919081815260200182805461053890611ba2565b80156105855780601f1061055a57610100808354040283529160200191610585565b820191906000526020600020905b81548152906001019060200180831161056857829003601f168201915b5050505050905090565b60008061059a610a4d565b90506105a7818585610a55565b600191505092915050565b6000600254905090565b6000806105c7610a4d565b90506105d4858285610c1e565b6105df858585610caa565b60019150509392505050565b600060056000838152602001908152602001600020600101549050919050565b610614826105eb565b61061d81610f20565b6106278383610f34565b505050565b60006012905090565b61063d610a4d565b73ffffffffffffffffffffffffffffffffffffffff168173ffffffffffffffffffffffffffffffffffffffff16146106aa576040517f08c379a00000000000000000000000000000000000000000000000000000000081526004016106a190611c45565b60405180910390fd5b6106b48282611015565b5050565b6000806106c3610a4d565b90506106e48185856106d5858961095c565b6106df9190611c94565b610a55565b600191505092915050565b6106f982826110f7565b5050565b61070e610708610a4d565b8261124d565b50565b60008060008373ffffffffffffffffffffffffffffffffffffffff1673ffffffffffffffffffffffffffffffffffffffff168152602001908152602001600020549050919050565b61076b82610765610a4d565b83610c1e565b610775828261124d565b5050565b60006005600084815260200190815260200160002060000160008373ffffffffffffffffffffffffffffffffffffffff1673ffffffffffffffffffffffffffffffffffffffff16815260200190815260200160002060009054906101000a900460ff16905092915050565b6060600480546107f390611ba2565b80601f016020809104026020016040519081016040528092919081815260200182805461081f90611ba2565b801561086c5780601f106108415761010080835404028352916020019161086c565b820191906000526020600020905b81548152906001019060200180831161084f57829003601f168201915b5050505050905090565b6000801b81565b600080610888610a4d565b90506000610896828661095c565b9050838110156108db576040517f08c379a00000000000000000000000000000000000000000000000000000000081526004016108d290611d3a565b60405180910390fd5b6108e88286868403610a55565b60019250505092915050565b6000806108ff610a4d565b905061090c818585610caa565b600191505092915050565b7f9f2df0fed2c77648de5860a4cc508cd0818c85b8b8a1ab4ceeef8d981c8956a681565b610944826105eb565b61094d81610f20565b6109578383611015565b505050565b6000600160008473ffffffffffffffffffffffffffffffffffffffff1673ffffffffffffffffffffffffffffffffffffffff16815260200190815260200160002060008373ffffffffffffffffffffffffffffffffffffffff1673ffffffffffffffffffffffffffffffffffffffff16815260200190815260200160002054905092915050565b60007f01ffc9a7000000000000000000000000000000000000000000000000000000007bffffffffffffffffffffffffffffffffffffffffffffffffffffffff1916827bffffffffffffffffffffffffffffffffffffffffffffffffffffffff1916149050919050565b600033905090565b600073ffffffffffffffffffffffffffffffffffffffff168373ffffffffffffffffffffffffffffffffffffffff1603610ac4576040517f08c379a0000000000000000000000000000000000000000000000000000000008152600401610abb90611dcc565b60405180910390fd5b600073ffffffffffffffffffffffffffffffffffffffff168273ffffffffffffffffffffffffffffffffffffffff1603610b33576040517f08c379a0000000000000000000000000000000000000000000000000000000008152600401610b2a90611e5e565b60405180910390fd5b80600160008573ffffffffffffffffffffffffffffffffffffffff1673ffffffffffffffffffffffffffffffffffffffff16815260200190815260200160002060008473ffffffffffffffffffffffffffffffffffffffff1673ffffffffffffffffffffffffffffffffffffffff168152602001908152602001600020819055508173ffffffffffffffffffffffffffffffffffffffff168373ffffffffffffffffffffffffffffffffffffffff167f8c5be1e5ebec7d5bd14f71427d1e84f3dd0314c0f7b2291e5b200ac8c7c3b92583604051610c119190611967565b60405180910390a3505050565b6000610c2a848461095c565b90507fffffffffffffffffffffffffffffffffffffffffffffffffffffffffffffffff8114610ca45781811015610c96576040517f08c379a0000000000000000000000000000000000000000000000000000000008152600401610c8d90611eca565b60405180910390fd5b610ca38484848403610a55565b5b50505050565b600073ffffffffffffffffffffffffffffffffffffffff168373ffffffffffffffffffffffffffffffffffffffff1603610d19576040517f08c379a0000000000000000000000000000000000000000000000000000000008152600401610d1090611f5c565b60405180910390fd5b600073ffffffffffffffffffffffffffffffffffffffff168273ffffffffffffffffffffffffffffffffffffffff1603610d88576040517f08c379a0000000000000000000000000000000000000000000000000000000008152600401610d7f90611fee565b60405180910390fd5b610d9383838361141a565b60008060008573ffffffffffffffffffffffffffffffffffffffff1673ffffffffffffffffffffffffffffffffffffffff16815260200190815260200160002054905081811015610e19576040517f08c379a0000000000000000000000000000000000000000000000000000000008152600401610e1090612080565b60405180910390fd5b8181036000808673ffffffffffffffffffffffffffffffffffffffff1673ffffffffffffffffffffffffffffffffffffffff16815260200190815260200160002081905550816000808573ffffffffffffffffffffffffffffffffffffffff1673ffffffffffffffffffffffffffffffffffffffff168152602001908152602001600020600082825401925050819055508273ffffffffffffffffffffffffffffffffffffffff168473ffffffffffffffffffffffffffffffffffffffff167fddf252ad1be2c89b69c2b068fc378daa952ba7f163c4a11628f55a4df523b3ef84604051610f079190611967565b60405180910390a3610f1a84848461141f565b50505050565b610f3181610f2c610a4d565b611424565b50565b610f3e8282610779565b6110115760016005600084815260200190815260200160002060000160008373ffffffffffffffffffffffffffffffffffffffff1673ffffffffffffffffffffffffffffffffffffffff16815260200190815260200160002060006101000a81548160ff021916908315150217905550610fb6610a4d565b73ffffffffffffffffffffffffffffffffffffffff168173ffffffffffffffffffffffffffffffffffffffff16837f2f8788117e7eff1d82e926ec794901d17c78024a50270940304540a733656f0d60405160405180910390a45b5050565b61101f8282610779565b156110f35760006005600084815260200190815260200160002060000160008373ffffffffffffffffffffffffffffffffffffffff1673ffffffffffffffffffffffffffffffffffffffff16815260200190815260200160002060006101000a81548160ff021916908315150217905550611098610a4d565b73ffffffffffffffffffffffffffffffffffffffff168173ffffffffffffffffffffffffffffffffffffffff16837ff6391f5c32d9c69d2a47ea670b442974b53935d1edc7fd64eb21e047a839171b60405160405180910390a45b5050565b600073ffffffffffffffffffffffffffffffffffffffff168273ffffffffffffffffffffffffffffffffffffffff1603611166576040517f08c379a000000000000000000000000000000000000000000000000000000000815260040161115d906120ec565b60405180910390fd5b6111726000838361141a565b80600260008282546111849190611c94565b92505081905550806000808473ffffffffffffffffffffffffffffffffffffffff1673ffffffffffffffffffffffffffffffffffffffff168152602001908152602001600020600082825401925050819055508173ffffffffffffffffffffffffffffffffffffffff16600073ffffffffffffffffffffffffffffffffffffffff167fddf252ad1be2c89b69c2b068fc378daa952ba7f163c4a11628f55a4df523b3ef836040516112359190611967565b60405180910390a36112496000838361141f565b5050565b600073ffffffffffffffffffffffffffffffffffffffff168273ffffffffffffffffffffffffffffffffffffffff16036112bc576040517f08c379a00000000000000000000000000000000000000000000000000000000081526004016112b39061217e565b60405180910390fd5b6112c88260008361141a565b60008060008473ffffffffffffffffffffffffffffffffffffffff1673ffffffffffffffffffffffffffffffffffffffff1681526020019081526020016000205490508181101561134e576040517f08c379a000000000000000000000000000000000000000000000000000000000815260040161134590612210565b60405180910390fd5b8181036000808573ffffffffffffffffffffffffffffffffffffffff1673ffffffffffffffffffffffffffffffffffffffff1681526020019081526020016000208190555081600260008282540392505081905550600073ffffffffffffffffffffffffffffffffffffffff168373ffffffffffffffffffffffffffffffffffffffff167fddf252ad1be2c89b69c2b068fc378daa952ba7f163c4a11628f55a4df523b3ef846040516114019190611967565b60405180910390a36114158360008461141f565b505050565b505050565b505050565b61142e8282610779565b6114a55761143b816114a9565b6114498360001c60206114d6565b60405160200161145a929190612304565b6040516020818303038152906040526040517f08c379a000000000000000000000000000000000000000000000000000000000815260040161149c9190611862565b60405180910390fd5b5050565b60606114cf8273ffffffffffffffffffffffffffffffffffffffff16601460ff166114d6565b9050919050565b6060600060028360026114e9919061233e565b6114f39190611c94565b67ffffffffffffffff81111561150c5761150b612380565b5b6040519080825280601f01601f19166020018201604052801561153e5781602001600182028036833780820191505090505b5090507f300000000000000000000000000000000000000000000000000000000000000081600081518110611576576115756123af565b5b60200101907effffffffffffffffffffffffffffffffffffffffffffffffffffffffffffff1916908160001a9053507f7800000000000000000000000000000000000000000000000000000000000000816001815181106115da576115d96123af565b5b60200101907effffffffffffffffffffffffffffffffffffffffffffffffffffffffffffff1916908160001a9053506000600184600261161a919061233e565b6116249190611c94565b90505b60018111156116c4577f3031323334353637383961626364656600000000000000000000000000000000600f861660108110611666576116656123af565b5b1a60f81b82828151811061167d5761167c6123af565b5b60200101907effffffffffffffffffffffffffffffffffffffffffffffffffffffffffffff1916908160001a905350600485901c9450806116bd906123de565b9050611627565b5060008414611708576040517f08c379a00000000000000000000000000000000000000000000000000000000081526004016116ff90612453565b60405180910390fd5b8091505092915050565b600080fd5b60007fffffffff0000000000000000000000000000000000000000000000000000000082169050919050565b61174c81611717565b811461175757600080fd5b50565b60008135905061176981611743565b92915050565b60006020828403121561178557611784611712565b5b60006117938482850161175a565b91505092915050565b60008115159050919050565b6117b18161179c565b82525050565b60006020820190506117cc60008301846117a8565b92915050565b600081519050919050565b600082825260208201905092915050565b60005b8381101561180c5780820151818401526020810190506117f1565b60008484015250505050565b6000601f19601f8301169050919050565b6000611834826117d2565b61183e81856117dd565b935061184e8185602086016117ee565b61185781611818565b840191505092915050565b6000602082019050818103600083015261187c8184611829565b905092915050565b600073ffffffffffffffffffffffffffffffffffffffff82169050919050565b60006118af82611884565b9050919050565b6118bf816118a4565b81146118ca57600080fd5b50565b6000813590506118dc816118b6565b92915050565b6000819050919050565b6118f5816118e2565b811461190057600080fd5b50565b600081359050611912816118ec565b92915050565b6000806040838503121561192f5761192e611712565b5b600061193d858286016118cd565b925050602061194e85828601611903565b9150509250929050565b611961816118e2565b82525050565b600060208201905061197c6000830184611958565b92915050565b60008060006060848603121561199b5761199a611712565b5b60006119a9868287016118cd565b93505060206119ba868287016118cd565b92505060406119cb86828701611903565b9150509250925092565b6000819050919050565b6119e8816119d5565b81146119f357600080fd5b50565b600081359050611a05816119df565b92915050565b600060208284031215611a2157611a20611712565b5b6000611a2f848285016119f6565b91505092915050565b611a41816119d5565b82525050565b6000602082019050611a5c6000830184611a38565b92915050565b60008060408385031215611a7957611a78611712565b5b6000611a87858286016119f6565b9250506020611a98858286016118cd565b9150509250929050565b600060ff82169050919050565b611ab881611aa2565b82525050565b6000602082019050611ad36000830184611aaf565b92915050565b600060208284031215611aef57611aee611712565b5b6000611afd84828501611903565b91505092915050565b600060208284031215611b1c57611b1b611712565b5b6000611b2a848285016118cd565b91505092915050565b60008060408385031215611b4a57611b49611712565b5b6000611b58858286016118cd565b9250506020611b69858286016118cd565b9150509250929050565b7f4e487b7100000000000000000000000000000000000000000000000000000000600052602260045260246000fd5b60006002820490506001821680611bba57607f821691505b602082108103611bcd57611bcc611b73565b5b50919050565b7f416363657373436f6e74726f6c3a2063616e206f6e6c792072656e6f756e636560008201527f20726f6c657320666f722073656c660000000000000000000000000000000000602082015250565b6000611c2f602f836117dd565b9150611c3a82611bd3565b604082019050919050565b60006020820190508181036000830152611c5e81611c22565b9050919050565b7f4e487b7100000000000000000000000000000000000000000000000000000000600052601160045260246000fd5b6000611c9f826118e2565b9150611caa836118e2565b9250828201905080821115611cc257611cc1611c65565b5b92915050565b7f45524332303a2064656372656173656420616c6c6f77616e63652062656c6f7760008201527f207a65726f000000000000000000000000000000000000000000000000000000602082015250565b6000611d246025836117dd565b9150611d2f82611cc8565b604082019050919050565b60006020820190508181036000830152611d5381611d17565b9050919050565b7f45524332303a20617070726f76652066726f6d20746865207a65726f2061646460008201527f7265737300000000000000000000000000000000000000000000000000000000602082015250565b6000611db66024836117dd565b9150611dc182611d5a565b604082019050919050565b60006020820190508181036000830152611de581611da9565b9050919050565b7f45524332303a20617070726f766520746f20746865207a65726f20616464726560008201527f7373000000000000000000000000000000000000000000000000000000000000602082015250565b6000611e486022836117dd565b9150611e5382611dec565b604082019050919050565b60006020820190508181036000830152611e7781611e3b565b9050919050565b7f45524332303a20696e73756666696369656e7420616c6c6f77616e6365000000600082015250565b6000611eb4601d836117dd565b9150611ebf82611e7e565b602082019050919050565b60006020820190508181036000830152611ee381611ea7565b9050919050565b7f45524332303a207472616e736665722066726f6d20746865207a65726f20616460008201527f6472657373000000000000000000000000000000000000000000000000000000602082015250565b6000611f466025836117dd565b9150611f5182611eea565b604082019050919050565b60006020820190508181036000830152611f7581611f39565b9050919050565b7f45524332303a207472616e7366657220746f20746865207a65726f206164647260008201527f6573730000000000000000000000000000000000000000000000000000000000602082015250565b6000611fd86023836117dd565b9150611fe382611f7c565b604082019050919050565b6000602082019050818103600083015261200781611fcb565b9050919050565b7f45524332303a207472616e7366657220616d6f756e742065786365656473206260008201527f616c616e63650000000000000000000000000000000000000000000000000000602082015250565b600061206a6026836117dd565b91506120758261200e565b604082019050919050565b600060208201905081810360008301526120998161205d565b9050919050565b7f45524332303a206d696e7420746f20746865207a65726f206164647265737300600082015250565b60006120d6601f836117dd565b91506120e1826120a0565b602082019050919050565b60006020820190508181036000830152612105816120c9565b9050919050565b7f45524332303a206275726e2066726f6d20746865207a65726f2061646472657360008201527f7300000000000000000000000000000000000000000000000000000000000000602082015250565b60006121686021836117dd565b91506121738261210c565b604082019050919050565b600060208201905081810360008301526121978161215b565b9050919050565b7f45524332303a206275726e20616d6f756e7420657863656564732062616c616e60008201527f6365000000000000000000000000000000000000000000000000000000000000602082015250565b60006121fa6022836117dd565b91506122058261219e565b604082019050919050565b60006020820190508181036000830152612229816121ed565b9050919050565b600081905092915050565b7f416363657373436f6e74726f6c3a206163636f756e7420000000000000000000600082015250565b6000612271601783612230565b915061227c8261223b565b601782019050919050565b6000612292826117d2565b61229c8185612230565b93506122ac8185602086016117ee565b80840191505092915050565b7f206973206d697373696e6720726f6c6520000000000000000000000000000000600082015250565b60006122ee601183612230565b91506122f9826122b8565b601182019050919050565b600061230f82612264565b915061231b8285612287565b9150612326826122e1565b91506123328284612287565b91508190509392505050565b6000612349826118e2565b9150612354836118e2565b9250828202612362816118e2565b9150828204841483151761237957612378611c65565b5b5092915050565b7f4e487b7100000000000000000000000000000000000000000000000000000000600052604160045260246000fd5b7f4e487b7100000000000000000000000000000000000000000000000000000000600052603260045260246000fd5b60006123e9826118e2565b9150600082036123fc576123fb611c65565b5b600182039050919050565b7f537472696e67733a20686578206c656e67746820696e73756666696369656e74600082015250565b600061243d6020836117dd565b915061244882612407565b602082019050919050565b6000602082019050818103600083015261246c81612430565b905091905056fea2646970667358221220bc57beff9c6b7e2cdee34fb6c5fbed6f5611414f14a6c2bfa308dd53848e3db364736f6c63430008130033",
  "linkReferences": {},
  "deployedLinkReferences": {}
}